00111144477735ZZZZZZZZZZZZZZZZZZZZZZZZZZZZZZSPXXXXXXXXXXXXXXXXXXXXXXXXXXXXXXYYYYYYYYYYYYYYYYYYYYYYYYYYYYYY8888888888
00211144477735                              SPXXXXXXXXXXXXXXXXXXXXXXXXXXXXXXYYYYYYYYYYYYYYYYYYYYYYYYYYYYYY8888888888
00311144477735                                XXXXXXXXXXXXXXXXXXXXXXXXXXXXXXYYYYYYYYYYYYYYYYYYYYYYYYYYYYYY8888888888
00411144477735                              AAXXXXXXXXXXXXXXXXXXXXXXXXXXXXXXYYYYYYYYYYYYYYYYYYYYYYYYYYYYYY8888888888
00511144477735                              MG                              YYYYYYYYYYYYYYYYYYYYYYYYYYYYYY8888888888
00611144477735                                XXXXXXXXXXXXXXXXXXXXXXXXXXXXXX                              8888888888
00711144477735ZZZZZZZZZZZZZZZZZZZZZZZZZZZZZZSPXXXXXXXXXXXXXXXXXXXXXXXXXXXXXXNAO TEM                       8888888888
00800000000000ZZZZZZZZZZZZZZZZZZZZZZZZZZZZZZSPXXXXXXXXXXXXXXXXXXXXXXXXXXXXXXYYYYYYYYYYYYYYYYYYYYYYYYYYYYYY8888888888
00911134477735ZZZZZZZZZZZZZZZZZZZZZZZZZZZZZZSPXXXXXXXXXXXXXXXXXXXXXXXXXXXXXXYYYYYYYYYYYYYYYYYYYYYYYYYYYYYY8888888888
01011144477715ZZZZZZZZZZZZZZZZZZZZZZZZZZZZZZSPXXXXXXXXXXXXXXXXXXXXXXXXXXXXXXYYYYYYYYYYYYYYYYYYYYYYYYYYYYYY8888888888
01100000000000                                                                                            8888888888
01211144477735ZZZZZZZZZZZZZZZZZZZZZZZZZZZZZZSP                              YYYYYYYYYYYYYYYYYYYYYYYYYYYYYY8888888888
01311144477735ZZZZZZZZZZZZZZZZZZZZZZZZZZZZZZSPXXXXXXXXXXXXXXXXXXXXXXXXXXXXXX                              8888888888
